{
    "_format": "hh-sol-artifact-1",
    "contractName": "ArtscapeCollection",
    "sourceName": "contracts/ArtscapeCollection.sol",
    "abi": [
        {
            "inputs": [
                {
                    "internalType": "string",
                    "name": "_collectionMetadataURI",
                    "type": "string"
                },
                {
                    "internalType": "string[]",
                    "name": "_tokenURIs",
                    "type": "string[]"
                }
            ],
            "stateMutability": "nonpayable",
            "type": "constructor"
        },
        {
            "inputs": [],
            "name": "AccessControlBadConfirmation",
            "type": "error"
        },
        {
            "inputs": [
                {
                    "internalType": "address",
                    "name": "account",
                    "type": "address"
                },
                {
                    "internalType": "bytes32",
                    "name": "neededRole",
                    "type": "bytes32"
                }
            ],
            "name": "AccessControlUnauthorizedAccount",
            "type": "error"
        },
        {
            "inputs": [
                {
                    "internalType": "address",
                    "name": "sender",
                    "type": "address"
                },
                {
                    "internalType": "uint256",
                    "name": "tokenId",
                    "type": "uint256"
                },
                {
                    "internalType": "address",
                    "name": "owner",
                    "type": "address"
                }
            ],
            "name": "ERC721IncorrectOwner",
            "type": "error"
        },
        {
            "inputs": [
                {
                    "internalType": "address",
                    "name": "operator",
                    "type": "address"
                },
                {
                    "internalType": "uint256",
                    "name": "tokenId",
                    "type": "uint256"
                }
            ],
            "name": "ERC721InsufficientApproval",
            "type": "error"
        },
        {
            "inputs": [
                {
                    "internalType": "address",
                    "name": "approver",
                    "type": "address"
                }
            ],
            "name": "ERC721InvalidApprover",
            "type": "error"
        },
        {
            "inputs": [
                {
                    "internalType": "address",
                    "name": "operator",
                    "type": "address"
                }
            ],
            "name": "ERC721InvalidOperator",
            "type": "error"
        },
        {
            "inputs": [
                {
                    "internalType": "address",
                    "name": "owner",
                    "type": "address"
                }
            ],
            "name": "ERC721InvalidOwner",
            "type": "error"
        },
        {
            "inputs": [
                {
                    "internalType": "address",
                    "name": "receiver",
                    "type": "address"
                }
            ],
            "name": "ERC721InvalidReceiver",
            "type": "error"
        },
        {
            "inputs": [
                {
                    "internalType": "address",
                    "name": "sender",
                    "type": "address"
                }
            ],
            "name": "ERC721InvalidSender",
            "type": "error"
        },
        {
            "inputs": [
                {
                    "internalType": "uint256",
                    "name": "tokenId",
                    "type": "uint256"
                }
            ],
            "name": "ERC721NonexistentToken",
            "type": "error"
        },
        {
            "anonymous": false,
            "inputs": [
                {
                    "indexed": true,
                    "internalType": "address",
                    "name": "owner",
                    "type": "address"
                },
                {
                    "indexed": true,
                    "internalType": "address",
                    "name": "approved",
                    "type": "address"
                },
                {
                    "indexed": true,
                    "internalType": "uint256",
                    "name": "tokenId",
                    "type": "uint256"
                }
            ],
            "name": "Approval",
            "type": "event"
        },
        {
            "anonymous": false,
            "inputs": [
                {
                    "indexed": true,
                    "internalType": "address",
                    "name": "owner",
                    "type": "address"
                },
                {
                    "indexed": true,
                    "internalType": "address",
                    "name": "operator",
                    "type": "address"
                },
                {
                    "indexed": false,
                    "internalType": "bool",
                    "name": "approved",
                    "type": "bool"
                }
            ],
            "name": "ApprovalForAll",
            "type": "event"
        },
        {
            "anonymous": false,
            "inputs": [
                {
                    "indexed": false,
                    "internalType": "uint256",
                    "name": "_fromTokenId",
                    "type": "uint256"
                },
                {
                    "indexed": false,
                    "internalType": "uint256",
                    "name": "_toTokenId",
                    "type": "uint256"
                }
            ],
            "name": "BatchMetadataUpdate",
            "type": "event"
        },
        {
            "anonymous": false,
            "inputs": [
                {
                    "indexed": false,
                    "internalType": "string",
                    "name": "newMetadataURI",
                    "type": "string"
                }
            ],
            "name": "CollectionMetadataURIUpdated",
            "type": "event"
        },
        {
            "anonymous": false,
            "inputs": [
                {
                    "indexed": false,
                    "internalType": "uint256",
                    "name": "_tokenId",
                    "type": "uint256"
                }
            ],
            "name": "MetadataUpdate",
            "type": "event"
        },
        {
            "anonymous": false,
            "inputs": [
                {
                    "indexed": true,
                    "internalType": "address",
                    "name": "minter",
                    "type": "address"
                },
                {
                    "indexed": true,
                    "internalType": "uint256",
                    "name": "tokenId",
                    "type": "uint256"
                },
                {
                    "indexed": false,
                    "internalType": "string",
                    "name": "tokenURI",
                    "type": "string"
                }
            ],
            "name": "NftMinted",
            "type": "event"
        },
        {
            "anonymous": false,
            "inputs": [
                {
                    "indexed": true,
                    "internalType": "bytes32",
                    "name": "role",
                    "type": "bytes32"
                },
                {
                    "indexed": true,
                    "internalType": "bytes32",
                    "name": "previousAdminRole",
                    "type": "bytes32"
                },
                {
                    "indexed": true,
                    "internalType": "bytes32",
                    "name": "newAdminRole",
                    "type": "bytes32"
                }
            ],
            "name": "RoleAdminChanged",
            "type": "event"
        },
        {
            "anonymous": false,
            "inputs": [
                {
                    "indexed": true,
                    "internalType": "bytes32",
                    "name": "role",
                    "type": "bytes32"
                },
                {
                    "indexed": true,
                    "internalType": "address",
                    "name": "account",
                    "type": "address"
                },
                {
                    "indexed": true,
                    "internalType": "address",
                    "name": "sender",
                    "type": "address"
                }
            ],
            "name": "RoleGranted",
            "type": "event"
        },
        {
            "anonymous": false,
            "inputs": [
                {
                    "indexed": true,
                    "internalType": "bytes32",
                    "name": "role",
                    "type": "bytes32"
                },
                {
                    "indexed": true,
                    "internalType": "address",
                    "name": "account",
                    "type": "address"
                },
                {
                    "indexed": true,
                    "internalType": "address",
                    "name": "sender",
                    "type": "address"
                }
            ],
            "name": "RoleRevoked",
            "type": "event"
        },
        {
            "anonymous": false,
            "inputs": [
                {
                    "indexed": true,
                    "internalType": "address",
                    "name": "from",
                    "type": "address"
                },
                {
                    "indexed": true,
                    "internalType": "address",
                    "name": "to",
                    "type": "address"
                },
                {
                    "indexed": true,
                    "internalType": "uint256",
                    "name": "tokenId",
                    "type": "uint256"
                }
            ],
            "name": "Transfer",
            "type": "event"
        },
        {
            "inputs": [],
            "name": "DEFAULT_ADMIN_ROLE",
            "outputs": [
                {
                    "internalType": "bytes32",
                    "name": "",
                    "type": "bytes32"
                }
            ],
            "stateMutability": "view",
            "type": "function"
        },
        {
            "inputs": [],
            "name": "MINTER_ROLE",
            "outputs": [
                {
                    "internalType": "bytes32",
                    "name": "",
                    "type": "bytes32"
                }
            ],
            "stateMutability": "view",
            "type": "function"
        },
        {
            "inputs": [
                {
                    "internalType": "address",
                    "name": "to",
                    "type": "address"
                },
                {
                    "internalType": "uint256",
                    "name": "tokenId",
                    "type": "uint256"
                }
            ],
            "name": "approve",
            "outputs": [],
            "stateMutability": "nonpayable",
            "type": "function"
        },
        {
            "inputs": [
                {
                    "internalType": "address",
                    "name": "owner",
                    "type": "address"
                }
            ],
            "name": "balanceOf",
            "outputs": [
                {
                    "internalType": "uint256",
                    "name": "",
                    "type": "uint256"
                }
            ],
            "stateMutability": "view",
            "type": "function"
        },
        {
            "inputs": [],
            "name": "collectionMetadataURI",
            "outputs": [
                {
                    "internalType": "string",
                    "name": "",
                    "type": "string"
                }
            ],
            "stateMutability": "view",
            "type": "function"
        },
        {
            "inputs": [
                {
                    "internalType": "uint256",
                    "name": "tokenId",
                    "type": "uint256"
                }
            ],
            "name": "getApproved",
            "outputs": [
                {
                    "internalType": "address",
                    "name": "",
                    "type": "address"
                }
            ],
            "stateMutability": "view",
            "type": "function"
        },
        {
            "inputs": [
                {
                    "internalType": "address",
                    "name": "minter",
                    "type": "address"
                }
            ],
            "name": "getMintedTokens",
            "outputs": [
                {
                    "internalType": "uint256[]",
                    "name": "",
                    "type": "uint256[]"
                }
            ],
            "stateMutability": "view",
            "type": "function"
        },
        {
            "inputs": [
                {
                    "internalType": "bytes32",
                    "name": "role",
                    "type": "bytes32"
                }
            ],
            "name": "getRoleAdmin",
            "outputs": [
                {
                    "internalType": "bytes32",
                    "name": "",
                    "type": "bytes32"
                }
            ],
            "stateMutability": "view",
            "type": "function"
        },
        {
            "inputs": [],
            "name": "getTotalMinted",
            "outputs": [
                {
                    "internalType": "uint256",
                    "name": "",
                    "type": "uint256"
                }
            ],
            "stateMutability": "view",
            "type": "function"
        },
        {
            "inputs": [
                {
                    "internalType": "address",
                    "name": "account",
                    "type": "address"
                }
            ],
            "name": "grantMinterRole",
            "outputs": [],
            "stateMutability": "nonpayable",
            "type": "function"
        },
        {
            "inputs": [
                {
                    "internalType": "bytes32",
                    "name": "role",
                    "type": "bytes32"
                },
                {
                    "internalType": "address",
                    "name": "account",
                    "type": "address"
                }
            ],
            "name": "grantRole",
            "outputs": [],
            "stateMutability": "nonpayable",
            "type": "function"
        },
        {
            "inputs": [
                {
                    "internalType": "bytes32",
                    "name": "role",
                    "type": "bytes32"
                },
                {
                    "internalType": "address",
                    "name": "account",
                    "type": "address"
                }
            ],
            "name": "hasRole",
            "outputs": [
                {
                    "internalType": "bool",
                    "name": "",
                    "type": "bool"
                }
            ],
            "stateMutability": "view",
            "type": "function"
        },
        {
            "inputs": [
                {
                    "internalType": "address",
                    "name": "owner",
                    "type": "address"
                },
                {
                    "internalType": "address",
                    "name": "operator",
                    "type": "address"
                }
            ],
            "name": "isApprovedForAll",
            "outputs": [
                {
                    "internalType": "bool",
                    "name": "",
                    "type": "bool"
                }
            ],
            "stateMutability": "view",
            "type": "function"
        },
        {
            "inputs": [
                {
                    "internalType": "string",
                    "name": "tokenURI",
                    "type": "string"
                }
            ],
            "name": "mintNft",
            "outputs": [],
            "stateMutability": "nonpayable",
            "type": "function"
        },
        {
            "inputs": [],
            "name": "name",
            "outputs": [
                {
                    "internalType": "string",
                    "name": "",
                    "type": "string"
                }
            ],
            "stateMutability": "view",
            "type": "function"
        },
        {
            "inputs": [
                {
                    "internalType": "uint256",
                    "name": "tokenId",
                    "type": "uint256"
                }
            ],
            "name": "ownerOf",
            "outputs": [
                {
                    "internalType": "address",
                    "name": "",
                    "type": "address"
                }
            ],
            "stateMutability": "view",
            "type": "function"
        },
        {
            "inputs": [
                {
                    "internalType": "bytes32",
                    "name": "role",
                    "type": "bytes32"
                },
                {
                    "internalType": "address",
                    "name": "callerConfirmation",
                    "type": "address"
                }
            ],
            "name": "renounceRole",
            "outputs": [],
            "stateMutability": "nonpayable",
            "type": "function"
        },
        {
            "inputs": [
                {
                    "internalType": "address",
                    "name": "account",
                    "type": "address"
                }
            ],
            "name": "revokeMinterRole",
            "outputs": [],
            "stateMutability": "nonpayable",
            "type": "function"
        },
        {
            "inputs": [
                {
                    "internalType": "bytes32",
                    "name": "role",
                    "type": "bytes32"
                },
                {
                    "internalType": "address",
                    "name": "account",
                    "type": "address"
                }
            ],
            "name": "revokeRole",
            "outputs": [],
            "stateMutability": "nonpayable",
            "type": "function"
        },
        {
            "inputs": [
                {
                    "internalType": "address",
                    "name": "from",
                    "type": "address"
                },
                {
                    "internalType": "address",
                    "name": "to",
                    "type": "address"
                },
                {
                    "internalType": "uint256",
                    "name": "tokenId",
                    "type": "uint256"
                }
            ],
            "name": "safeTransferFrom",
            "outputs": [],
            "stateMutability": "nonpayable",
            "type": "function"
        },
        {
            "inputs": [
                {
                    "internalType": "address",
                    "name": "from",
                    "type": "address"
                },
                {
                    "internalType": "address",
                    "name": "to",
                    "type": "address"
                },
                {
                    "internalType": "uint256",
                    "name": "tokenId",
                    "type": "uint256"
                },
                {
                    "internalType": "bytes",
                    "name": "data",
                    "type": "bytes"
                }
            ],
            "name": "safeTransferFrom",
            "outputs": [],
            "stateMutability": "nonpayable",
            "type": "function"
        },
        {
            "inputs": [
                {
                    "internalType": "address",
                    "name": "operator",
                    "type": "address"
                },
                {
                    "internalType": "bool",
                    "name": "approved",
                    "type": "bool"
                }
            ],
            "name": "setApprovalForAll",
            "outputs": [],
            "stateMutability": "nonpayable",
            "type": "function"
        },
        {
            "inputs": [
                {
                    "internalType": "bytes4",
                    "name": "interfaceId",
                    "type": "bytes4"
                }
            ],
            "name": "supportsInterface",
            "outputs": [
                {
                    "internalType": "bool",
                    "name": "",
                    "type": "bool"
                }
            ],
            "stateMutability": "view",
            "type": "function"
        },
        {
            "inputs": [],
            "name": "symbol",
            "outputs": [
                {
                    "internalType": "string",
                    "name": "",
                    "type": "string"
                }
            ],
            "stateMutability": "view",
            "type": "function"
        },
        {
            "inputs": [
                {
                    "internalType": "uint256",
                    "name": "tokenId",
                    "type": "uint256"
                }
            ],
            "name": "tokenURI",
            "outputs": [
                {
                    "internalType": "string",
                    "name": "",
                    "type": "string"
                }
            ],
            "stateMutability": "view",
            "type": "function"
        },
        {
            "inputs": [
                {
                    "internalType": "address",
                    "name": "from",
                    "type": "address"
                },
                {
                    "internalType": "address",
                    "name": "to",
                    "type": "address"
                },
                {
                    "internalType": "uint256",
                    "name": "tokenId",
                    "type": "uint256"
                }
            ],
            "name": "transferFrom",
            "outputs": [],
            "stateMutability": "nonpayable",
            "type": "function"
        },
        {
            "inputs": [
                {
                    "internalType": "string",
                    "name": "newMetadataURI",
                    "type": "string"
                }
            ],
            "name": "updateCollectionMetadataURI",
            "outputs": [],
            "stateMutability": "nonpayable",
            "type": "function"
        }
    ],
    "bytecode": "0x60806040523480156200001157600080fd5b50604051620026a6380380620026a68339810160408190526200003491620009d3565b6040518060400160405280601281526020017120b93a39b1b0b832a1b7b63632b1ba34b7b760711b8152506040518060400160405280600381526020016210549560ea1b81525081600090816200008c919062000b58565b5060016200009b828262000b58565b5050508051600a14620001005760405162461bcd60e51b815260206004820152602260248201527f4d7573742070726f766964652065786163746c7920313020746f6b656e205552604482015261497360f01b60648201526084015b60405180910390fd5b6200010d60003362000196565b5062000129600080516020620026868339815191523362000196565b50600060085560096200013d838262000b58565b5060005b600a8110156200018d576200017882828151811062000164576200016462000c24565b60200260200101516200024960201b60201c565b80620001848162000c50565b91505062000141565b50505062000d37565b60008281526007602090815260408083206001600160a01b038516845290915281205460ff166200023f5760008381526007602090815260408083206001600160a01b03861684529091529020805460ff19166001179055620001f63390565b6001600160a01b0316826001600160a01b0316847f2f8788117e7eff1d82e926ec794901d17c78024a50270940304540a733656f0d60405160405180910390a450600162000243565b5060005b92915050565b600080516020620026868339815191526200026481620002fe565b6008546200027333826200030d565b6200027f818462000333565b336000818152600a6020908152604080832080546001810182559084529190922001839055518291907f8e503b21c99b65aca8c7496e1574773871f0a73bf9262e58fb99528b46fd776a90620002d790879062000c9a565b60405180910390a3600160086000828254620002f4919062000cb6565b9091555050505050565b6200030a813362000385565b50565b6200032f828260405180602001604052806000815250620003dc60201b60201c565b5050565b60008281526006602052604090206200034d828262000b58565b506040518281527ff8e1a15aba9398e019f0b49df1a4fde98ee17ae345cb5f6b5e2c27f5033e8ce79060200160405180910390a15050565b60008281526007602090815260408083206001600160a01b038516845290915290205460ff166200032f5760405163e2517d3f60e01b81526001600160a01b038216600482015260248101839052604401620000f7565b620003e88383620003fc565b620003f7600084848462000466565b505050565b6001600160a01b0382166200042857604051633250574960e11b815260006004820152602401620000f7565b6000620004378383836200059d565b90506001600160a01b03811615620003f7576040516339e3563760e11b815260006004820152602401620000f7565b6001600160a01b0383163b156200059757604051630a85bd0160e11b81526001600160a01b0384169063150b7a0290620004ab90339088908790879060040162000ccc565b6020604051808303816000875af1925050508015620004e9575060408051601f3d908101601f19168201909252620004e69181019062000d0b565b60015b62000557573d8080156200051a576040519150601f19603f3d011682016040523d82523d6000602084013e6200051f565b606091505b5080516000036200054f57604051633250574960e11b81526001600160a01b0385166004820152602401620000f7565b805181602001fd5b6001600160e01b03198116630a85bd0160e11b146200059557604051633250574960e11b81526001600160a01b0385166004820152602401620000f7565b505b50505050565b6000828152600260205260408120546001600160a01b0390811690831615620005cd57620005cd8184866200069c565b6001600160a01b038116156200060d57620005ec600085818062000706565b6001600160a01b038116600090815260036020526040902080546000190190555b6001600160a01b038516156200063d576001600160a01b0385166000908152600360205260409020805460010190555b60008481526002602052604080822080546001600160a01b0319166001600160a01b0389811691821790925591518793918516917fddf252ad1be2c89b69c2b068fc378daa952ba7f163c4a11628f55a4df523b3ef91a4949350505050565b620006a983838362000834565b620003f7576001600160a01b038316620006da57604051637e27328960e01b815260048101829052602401620000f7565b60405163177e802f60e01b81526001600160a01b038316600482015260248101829052604401620000f7565b80806200071b57506001600160a01b03821615155b15620008045760006200072e84620008bd565b90506001600160a01b038316158015906200075b5750826001600160a01b0316816001600160a01b031614155b80156200078e57506001600160a01b0380821660009081526005602090815260408083209387168352929052205460ff16155b15620007b95760405163a9fbf51f60e01b81526001600160a01b0384166004820152602401620000f7565b8115620008025783856001600160a01b0316826001600160a01b03167f8c5be1e5ebec7d5bd14f71427d1e84f3dd0314c0f7b2291e5b200ac8c7c3b92560405160405180910390a45b505b5050600090815260046020526040902080546001600160a01b0319166001600160a01b0392909216919091179055565b60006001600160a01b03831615801590620008b55750826001600160a01b0316846001600160a01b031614806200089057506001600160a01b0380851660009081526005602090815260408083209387168352929052205460ff165b80620008b557506000828152600460205260409020546001600160a01b038481169116145b949350505050565b6000818152600260205260408120546001600160a01b0316806200024357604051637e27328960e01b815260048101849052602401620000f7565b634e487b7160e01b600052604160045260246000fd5b604051601f8201601f191681016001600160401b0381118282101715620009395762000939620008f8565b604052919050565b60005b838110156200095e57818101518382015260200162000944565b50506000910152565b600082601f8301126200097957600080fd5b81516001600160401b03811115620009955762000995620008f8565b620009aa601f8201601f19166020016200090e565b818152846020838601011115620009c057600080fd5b620008b582602083016020870162000941565b60008060408385031215620009e757600080fd5b82516001600160401b0380821115620009ff57600080fd5b62000a0d8683870162000967565b935060209150818501518181111562000a2557600080fd5b8501601f8101871362000a3757600080fd5b80518281111562000a4c5762000a4c620008f8565b8060051b62000a5d8582016200090e565b918252828101850191858101908a84111562000a7857600080fd5b86850192505b8383101562000ab95782518681111562000a985760008081fd5b62000aa88c898389010162000967565b835250918601919086019062000a7e565b809750505050505050509250929050565b600181811c9082168062000adf57607f821691505b60208210810362000b0057634e487b7160e01b600052602260045260246000fd5b50919050565b601f821115620003f757600081815260208120601f850160051c8101602086101562000b2f5750805b601f850160051c820191505b8181101562000b505782815560010162000b3b565b505050505050565b81516001600160401b0381111562000b745762000b74620008f8565b62000b8c8162000b85845462000aca565b8462000b06565b602080601f83116001811462000bc4576000841562000bab5750858301515b600019600386901b1c1916600185901b17855562000b50565b600085815260208120601f198616915b8281101562000bf55788860151825594840194600190910190840162000bd4565b508582101562000c145787850151600019600388901b60f8161c191681555b5050505050600190811b01905550565b634e487b7160e01b600052603260045260246000fd5b634e487b7160e01b600052601160045260246000fd5b60006001820162000c655762000c6562000c3a565b5060010190565b6000815180845262000c8681602086016020860162000941565b601f01601f19169290920160200192915050565b60208152600062000caf602083018462000c6c565b9392505050565b8082018082111562000243576200024362000c3a565b6001600160a01b038581168252841660208201526040810183905260806060820181905260009062000d019083018462000c6c565b9695505050505050565b60006020828403121562000d1e57600080fd5b81516001600160e01b03198116811462000caf57600080fd5b61193f8062000d476000396000f3fe608060405234801561001057600080fd5b50600436106101a95760003560e01c806369e2f0fb116100f9578063b88d4fde11610097578063d547741f11610071578063d547741f14610391578063da86f4a9146103a4578063e985e9c5146103b7578063f2d67574146103ca57600080fd5b8063b88d4fde14610356578063c87b56dd14610369578063d53913931461037c57600080fd5b806391d14854116100d357806391d148541461032057806395d89b4114610333578063a217fddf1461033b578063a22cb4651461034357600080fd5b806369e2f0fb146102f257806370a08231146103055780637400deab1461031857600080fd5b8063248a9ca3116101665780633dd1eb61116101405780633dd1eb611461029957806342842e0e146102ac578063434a49a1146102bf5780636352211e146102df57600080fd5b8063248a9ca3146102505780632f2ff15d1461027357806336568abe1461028657600080fd5b806301ffc9a7146101ae57806306fdde03146101d6578063081812fc146101eb578063095ea7b3146102165780630ca1c5c91461022b57806323b872dd1461023d575b600080fd5b6101c16101bc36600461139a565b6103dd565b60405190151581526020015b60405180910390f35b6101de6103ee565b6040516101cd9190611407565b6101fe6101f936600461141a565b610480565b6040516001600160a01b0390911681526020016101cd565b61022961022436600461144f565b6104a9565b005b6008545b6040519081526020016101cd565b61022961024b366004611479565b6104b8565b61022f61025e36600461141a565b60009081526007602052604090206001015490565b6102296102813660046114b5565b610548565b6102296102943660046114b5565b61056d565b6102296102a73660046114e1565b6105a5565b6102296102ba366004611479565b6105c8565b6102d26102cd3660046114e1565b6105e3565b6040516101cd91906114fc565b6101fe6102ed36600461141a565b61064f565b6102296103003660046114e1565b61065a565b61022f6103133660046114e1565b61067d565b6101de6106c5565b6101c161032e3660046114b5565b610753565b6101de61077e565b61022f600081565b610229610351366004611540565b61078d565b610229610364366004611608565b610798565b6101de61037736600461141a565b6107af565b61022f6000805160206118ea83398151915281565b61022961039f3660046114b5565b6108c0565b6102296103b2366004611684565b6108e5565b6101c16103c53660046116cd565b61098f565b6102296103d8366004611684565b6109bd565b60006103e882610a10565b92915050565b6060600080546103fd906116f7565b80601f0160208091040260200160405190810160405280929190818152602001828054610429906116f7565b80156104765780601f1061044b57610100808354040283529160200191610476565b820191906000526020600020905b81548152906001019060200180831161045957829003601f168201915b5050505050905090565b600061048b82610a35565b506000828152600460205260409020546001600160a01b03166103e8565b6104b4828233610a6e565b5050565b6001600160a01b0382166104e757604051633250574960e11b8152600060048201526024015b60405180910390fd5b60006104f4838333610a7b565b9050836001600160a01b0316816001600160a01b031614610542576040516364283d7b60e01b81526001600160a01b03808616600483015260248201849052821660448201526064016104de565b50505050565b60008281526007602052604090206001015461056381610b74565b6105428383610b81565b6001600160a01b03811633146105965760405163334bd91960e11b815260040160405180910390fd5b6105a08282610c15565b505050565b60006105b081610b74565b6104b46000805160206118ea83398151915283610548565b6105a083838360405180602001604052806000815250610798565b6001600160a01b0381166000908152600a602090815260409182902080548351818402810184019094528084526060939283018282801561064357602002820191906000526020600020905b81548152602001906001019080831161062f575b50505050509050919050565b60006103e882610a35565b600061066581610b74565b6104b46000805160206118ea833981519152836108c0565b60006001600160a01b0382166106a9576040516322718ad960e21b8152600060048201526024016104de565b506001600160a01b031660009081526003602052604090205490565b600980546106d2906116f7565b80601f01602080910402602001604051908101604052809291908181526020018280546106fe906116f7565b801561074b5780601f106107205761010080835404028352916020019161074b565b820191906000526020600020905b81548152906001019060200180831161072e57829003601f168201915b505050505081565b60009182526007602090815260408084206001600160a01b0393909316845291905290205460ff1690565b6060600180546103fd906116f7565b6104b4338383610c82565b6107a38484846104b8565b61054284848484610d21565b60606107ba82610a35565b50600082815260066020526040812080546107d4906116f7565b80601f0160208091040260200160405190810160405280929190818152602001828054610800906116f7565b801561084d5780601f106108225761010080835404028352916020019161084d565b820191906000526020600020905b81548152906001019060200180831161083057829003601f168201915b50505050509050600061086b60408051602081019091526000815290565b9050805160000361087d575092915050565b8151156108af578082604051602001610897929190611731565b60405160208183030381529060405292505050919050565b6108b884610e4a565b949350505050565b6000828152600760205260409020600101546108db81610b74565b6105428383610c15565b6000805160206118ea8339815191526108fd81610b74565b60085461090a3382610ebf565b6109148184610ed9565b336000818152600a6020908152604080832080546001810182559084529190922001839055518291907f8e503b21c99b65aca8c7496e1574773871f0a73bf9262e58fb99528b46fd776a9061096a908790611407565b60405180910390a36001600860008282546109859190611760565b9091555050505050565b6001600160a01b03918216600090815260056020908152604080832093909416825291909152205460ff1690565b60006109c881610b74565b60096109d483826117cf565b507f13dbbfb4ba394f2406d4fc229be58739dbf73624eafed1fe18dfb460a6d3fcbb82604051610a049190611407565b60405180910390a15050565b60006001600160e01b03198216637965db0b60e01b14806103e857506103e882610f22565b6000818152600260205260408120546001600160a01b0316806103e857604051637e27328960e01b8152600481018490526024016104de565b6105a08383836001610f47565b6000828152600260205260408120546001600160a01b0390811690831615610aa857610aa881848661104d565b6001600160a01b03811615610ae657610ac5600085600080610f47565b6001600160a01b038116600090815260036020526040902080546000190190555b6001600160a01b03851615610b15576001600160a01b0385166000908152600360205260409020805460010190555b60008481526002602052604080822080546001600160a01b0319166001600160a01b0389811691821790925591518793918516917fddf252ad1be2c89b69c2b068fc378daa952ba7f163c4a11628f55a4df523b3ef91a4949350505050565b610b7e81336110b1565b50565b6000610b8d8383610753565b610c0d5760008381526007602090815260408083206001600160a01b03861684529091529020805460ff19166001179055610bc53390565b6001600160a01b0316826001600160a01b0316847f2f8788117e7eff1d82e926ec794901d17c78024a50270940304540a733656f0d60405160405180910390a45060016103e8565b5060006103e8565b6000610c218383610753565b15610c0d5760008381526007602090815260408083206001600160a01b0386168085529252808320805460ff1916905551339286917ff6391f5c32d9c69d2a47ea670b442974b53935d1edc7fd64eb21e047a839171b9190a45060016103e8565b6001600160a01b038216610cb457604051630b61174360e31b81526001600160a01b03831660048201526024016104de565b6001600160a01b03838116600081815260056020908152604080832094871680845294825291829020805460ff191686151590811790915591519182527f17307eab39ab6107e8899845ad3d59bd9653f200f220920489ca2b5937696c31910160405180910390a3505050565b6001600160a01b0383163b1561054257604051630a85bd0160e11b81526001600160a01b0384169063150b7a0290610d6390339088908790879060040161188f565b6020604051808303816000875af1925050508015610d9e575060408051601f3d908101601f19168201909252610d9b918101906118cc565b60015b610e07573d808015610dcc576040519150601f19603f3d011682016040523d82523d6000602084013e610dd1565b606091505b508051600003610dff57604051633250574960e11b81526001600160a01b03851660048201526024016104de565b805181602001fd5b6001600160e01b03198116630a85bd0160e11b14610e4357604051633250574960e11b81526001600160a01b03851660048201526024016104de565b5050505050565b6060610e5582610a35565b506000610e6d60408051602081019091526000815290565b90506000815111610e8d5760405180602001604052806000815250610eb8565b80610e97846110ea565b604051602001610ea8929190611731565b6040516020818303038152906040525b9392505050565b6104b482826040518060200160405280600081525061117d565b6000828152600660205260409020610ef182826117cf565b506040518281527ff8e1a15aba9398e019f0b49df1a4fde98ee17ae345cb5f6b5e2c27f5033e8ce790602001610a04565b60006001600160e01b03198216632483248360e11b14806103e857506103e882611194565b8080610f5b57506001600160a01b03821615155b1561101d576000610f6b84610a35565b90506001600160a01b03831615801590610f975750826001600160a01b0316816001600160a01b031614155b8015610faa5750610fa8818461098f565b155b15610fd35760405163a9fbf51f60e01b81526001600160a01b03841660048201526024016104de565b811561101b5783856001600160a01b0316826001600160a01b03167f8c5be1e5ebec7d5bd14f71427d1e84f3dd0314c0f7b2291e5b200ac8c7c3b92560405160405180910390a45b505b5050600090815260046020526040902080546001600160a01b0319166001600160a01b0392909216919091179055565b6110588383836111e4565b6105a0576001600160a01b03831661108657604051637e27328960e01b8152600481018290526024016104de565b60405163177e802f60e01b81526001600160a01b0383166004820152602481018290526044016104de565b6110bb8282610753565b6104b45760405163e2517d3f60e01b81526001600160a01b0382166004820152602481018390526044016104de565b606060006110f783611247565b600101905060008167ffffffffffffffff8111156111175761111761157c565b6040519080825280601f01601f191660200182016040528015611141576020820181803683370190505b5090508181016020015b600019016f181899199a1a9b1b9c1cb0b131b232b360811b600a86061a8153600a850494508461114b57509392505050565b611187838361131f565b6105a06000848484610d21565b60006001600160e01b031982166380ac58cd60e01b14806111c557506001600160e01b03198216635b5e139f60e01b145b806103e857506301ffc9a760e01b6001600160e01b03198316146103e8565b60006001600160a01b038316158015906108b85750826001600160a01b0316846001600160a01b0316148061121e575061121e848461098f565b806108b85750506000908152600460205260409020546001600160a01b03908116911614919050565b60008072184f03e93ff9f4daa797ed6e38ed64bf6a1f0160401b83106112865772184f03e93ff9f4daa797ed6e38ed64bf6a1f0160401b830492506040015b6d04ee2d6d415b85acef810000000083106112b2576d04ee2d6d415b85acef8100000000830492506020015b662386f26fc1000083106112d057662386f26fc10000830492506010015b6305f5e10083106112e8576305f5e100830492506008015b61271083106112fc57612710830492506004015b6064831061130e576064830492506002015b600a83106103e85760010192915050565b6001600160a01b03821661134957604051633250574960e11b8152600060048201526024016104de565b600061135783836000610a7b565b90506001600160a01b038116156105a0576040516339e3563760e11b8152600060048201526024016104de565b6001600160e01b031981168114610b7e57600080fd5b6000602082840312156113ac57600080fd5b8135610eb881611384565b60005b838110156113d25781810151838201526020016113ba565b50506000910152565b600081518084526113f38160208601602086016113b7565b601f01601f19169290920160200192915050565b602081526000610eb860208301846113db565b60006020828403121561142c57600080fd5b5035919050565b80356001600160a01b038116811461144a57600080fd5b919050565b6000806040838503121561146257600080fd5b61146b83611433565b946020939093013593505050565b60008060006060848603121561148e57600080fd5b61149784611433565b92506114a560208501611433565b9150604084013590509250925092565b600080604083850312156114c857600080fd5b823591506114d860208401611433565b90509250929050565b6000602082840312156114f357600080fd5b610eb882611433565b6020808252825182820181905260009190848201906040850190845b8181101561153457835183529284019291840191600101611518565b50909695505050505050565b6000806040838503121561155357600080fd5b61155c83611433565b91506020830135801515811461157157600080fd5b809150509250929050565b634e487b7160e01b600052604160045260246000fd5b600067ffffffffffffffff808411156115ad576115ad61157c565b604051601f8501601f19908116603f011681019082821181831017156115d5576115d561157c565b816040528093508581528686860111156115ee57600080fd5b858560208301376000602087830101525050509392505050565b6000806000806080858703121561161e57600080fd5b61162785611433565b935061163560208601611433565b925060408501359150606085013567ffffffffffffffff81111561165857600080fd5b8501601f8101871361166957600080fd5b61167887823560208401611592565b91505092959194509250565b60006020828403121561169657600080fd5b813567ffffffffffffffff8111156116ad57600080fd5b8201601f810184136116be57600080fd5b6108b884823560208401611592565b600080604083850312156116e057600080fd5b6116e983611433565b91506114d860208401611433565b600181811c9082168061170b57607f821691505b60208210810361172b57634e487b7160e01b600052602260045260246000fd5b50919050565b600083516117438184602088016113b7565b8351908301906117578183602088016113b7565b01949350505050565b808201808211156103e857634e487b7160e01b600052601160045260246000fd5b601f8211156105a057600081815260208120601f850160051c810160208610156117a85750805b601f850160051c820191505b818110156117c7578281556001016117b4565b505050505050565b815167ffffffffffffffff8111156117e9576117e961157c565b6117fd816117f784546116f7565b84611781565b602080601f831160018114611832576000841561181a5750858301515b600019600386901b1c1916600185901b1785556117c7565b600085815260208120601f198616915b8281101561186157888601518255948401946001909101908401611842565b508582101561187f5787850151600019600388901b60f8161c191681555b5050505050600190811b01905550565b6001600160a01b03858116825284166020820152604081018390526080606082018190526000906118c2908301846113db565b9695505050505050565b6000602082840312156118de57600080fd5b8151610eb88161138456fe9f2df0fed2c77648de5860a4cc508cd0818c85b8b8a1ab4ceeef8d981c8956a6a26469706673582212206dff6e51ce913cba11ea743c81b1b2ad1dc75162d8440ee3edc60415ba789aba64736f6c634300081400339f2df0fed2c77648de5860a4cc508cd0818c85b8b8a1ab4ceeef8d981c8956a6",
    "linkReferences": {},
    "deployedLinkReferences": {}
}